:02000004080AE8
:1000000000000A084C1A0A08000006000600050154
:080010000402FD0800000000DD
:0400180000180A08BA
:1000200009480A4908B5884205D0094A824202D0E7
:10003000121A01F03BFB0748074A0021121A01F08F
:1000400043FB064808BD00BF00000020B4190A08A1
:100050007000002070000020010600200106002032
:1000600070B500F0B5FB0025054E064CA41BA40896
:10007000A54200D170BD56F8043B98470135F7E71B
:1000800084190A08A4190A0800F016B808B500F087
:1000900057F8BDE8084000F053BB00F01BBA00F071
:1000A00021BA0078B0FA80F040097047012303704C
:1000B00070471068704700001FB5002301221549E2
:1000C000154800F0F7F9002302221449144800F003
:1000D000F1F9002309221349134800F0EBF9134901
:1000E000002304220968124800F0E4F900240C23DC
:1000F0000194ADF804300F4B042202930E4901AB7A
:100100000E48039400F0D6F921460A2000F082FE42
:1001100004B010BD8400002014180A0880000020DC
:1001200019180A088800002025180A080000002075
:100130002A180A08B3000A08700000202F180A08BD
:1001400008B50A2000F077FE134B186001F02CF878
:100150000DA3D3E9002301F091F80DA3D3E9002307
:1001600001F0B6F900220D4B00F0D0FE0C4B00223E
:1001700001F084F80B4BC3E90001C820BDE808403A
:1001800000F09EBAAFF300806666666666660A4057
:100190000000000000FEAF40800000200000E03FB3
:1001A00000005940880000200149024800F017BAB9
:1001B00034180A087000002008B5024B1B685B6801
:1001C000019308BDB001060808B5024B1B689B6887
:1001D000019308BDB001060808B5024B1B681B6BF4
:1001E000019308BDB001060808B5024B1B685B68A7
:1001F000019308BD9C01060808B5024B1B685B69AA
:10020000019308BD9C01060808B5024B1B685B6C96
:10021000019308BDD001060808B5024B1B689B6C12
:10022000019308BDD001060808B5024B1B689B6905
:10023000019308BDC401060808B5024B1B685B6A40
:10024000019308BDC401060808B5024B1B689B6AF0
:10025000019308BDC401060808B5024B1B68DB6AA0
:10026000019308BDC401060808B5024B1B681B6B4F
:10027000019308BDC401060808B5024B1B685B6BFF
:10028000019308BDC401060808B5024B1B689B6BAF
:10029000019308BDC401060808B5024B1B681B6C1E
:1002A000019308BDC401060808B5024B1B681B6E0C
:1002B000019308BDAC01060808B5024B1B685B6ED4
:1002C000019308BDAC01060808B5024B1B689B6E84
:1002D000019308BDAC01060808B5024B1B68DB6E34
:1002E000019308BDAC01060808B5024B1B681B6FE3
:1002F000019308BDAC01060808B5024B1B685B6F93
:10030000019308BDAC01060808B5034B1B68D3F880
:100310008030019308BD0000AC01060808B5024B0F
:100320001B68DB69019308BDB401060808B5024BE0
:100330001B681B6A019308BDB401060808B5024B8F
:100340001B681B68019308BDD801060808B5024B5D
:100350001B681B69019308BDD801060808B5024B4C
:100360001B685B69019308BDD801060808B5024BFC
:100370001B689B69019308BDD801060808B5024BAC
:100380001B68DB69019308BDD801060808B5024B5C
:100390001B681B6A019308BDD801060808B5024B0B
:1003A0001B689B6C019308BDC001060808B5024B91
:1003B0001B685B68019308BDA401060808B5024BE1
:1003C0001B685B69019308BDA401060808B5034BCF
:1003D0001B68D3F89030019308BD0000A401060803
:1003E00008B5034B1B68D3F89C30019308BD00008F
:1003F000A401060808B5024B1B685B68019308BDA1
:10040000C801060808B5024B1B689B68019308BD2C
:10041000C801060808B5024B1B68DB68019308BDDC
:10042000C801060808B5024B1B681B69019308BD8B
:10043000C801060808B5024B1B685B69019308BD3B
:10044000C801060808B5024B1B689B69019308BDEB
:10045000C801060808B5024B1B68DB69019308BD9B
:10046000C801060808B5024B1B681B6A019308BD4A
:10047000C801060808B5024B1B681B6B019308BD39
:10048000C801060808B5024B1B685B6B019308BDE9
:10049000C801060808B5024B1B681B6C019308BD18
:1004A000C801060808B5024B1B685B6C019308BDC8
:1004B000C801060808B5024B1B681B68019308BDFC
:1004C000CC01060808B5024B1B68DB6B019308BD25
:1004D000CC01060808B5024B1B681B68019308BDD8
:1004E000A001060808B5024B1B685B68019308BDB4
:1004F000A001060808B5024B1B689B68019308BD64
:10050000A001060808B5024B1B685B6C019308BD8F
:10051000A001060870B5002604460D4640F8086F95
:10052000FFF772FE28462570FFF7F8FE204666604A
:1005300070BD000002220020044B1A60044B054AE3
:100540001860988098719A60FFF730BF9C00002077
:10055000900000200000FFFF10B50446006808B1BD
:10056000FFF7C0FF0023C4E90133236010BD38B595
:1005700004460D4600680131FFF7BCFF10B1C4E925
:100580000005012038BD10B50368044623B1436857
:100590008B4201D3012010BD2046FFF7E8FF002861
:1005A000F9D0A368002BF5D122681370F2E770B57B
:1005B0000E46114604461546FFF7E5FF20B92046D2
:1005C000FFF7CAFF204670BD2A4631462068A56065
:1005D00001F06CF800212268A368D154F2E738B525
:1005E000002304460D46C0E900338360037339B12C
:1005F000084601F095F8294602462046FFF7D7FF46
:10060000204638BDF8B506460D4600248F18BD4279
:100610000CD0336830469B6815F8011B9847031EC1
:1006200001DB1C44F3E7002C08BF1C462046F8BD44
:1006300070B505460C46084649B101F071F82B68C3
:10064000024621462846BDE87040DB68184770BD69
:1006500003689B6818470023012A98BF0A2230B517
:100660008BB00C468DF8243009A92546B4FBF2F472
:1006700004FB1253DBB2092B94BF30333733DBB2A8
:10068000AA4201F8013DF0D9FFF7D2FF0BB030BD0F
:10069000002340681A461946FFF7CCBE014B024AB8
:1006A0001A607047A000002049180A08024B1A6817
:1006B000024B1A60704700BF04000020A400002015
:1006C0000021FFF77BBE00000022014B9A607047BB
:1006D000A8000020014B1860704700BF08000020F0
:1006E00008B5134B43B100F071F903681B699847D3
:1006F000002801DDAFF300800E4B43B100F016FA85
:1007000003681B699847002801DDAFF300800A4B9E
:100710000BB1AFF30080094B43B100F091F90368CE
:100720001B699847002801DDAFF3008008BD00BFBA
:1007300000000000000000000000000000000000B9
:1007400008B5FFF7CDFFFFF757FD014B186008BD57
:10075000340500200548064A08B5121A054900F07C
:10076000A5FF054B054A1A6008BD00BF00400240C6
:1007700004400240B0190A08004002401E1C279A9B
:10078000002307B51A466FF077010093FFF728FEA4
:1007900003B05DF804FB000007B543880A2B08D0BE
:1007A000502B0BD1094B1B684BB103B05DF804EB28
:1007B0001847FFF7E5FF03B05DF804FB00231A4676
:1007C0006FF077010093FFF70BFEF4E7BC00002009
:1007D000002110B51148FFF795FE114B1A68114B17
:1007E0009A420CBF012200220F4B1A7001D0FFF772
:1007F000B1FFFFF7F9FC044600F06EFF0B4B13B19D
:100800002046AFF3008000210848FFF75BFEBDE8FB
:10081000104000210648FFF7D9BD00BFD5060A08E1
:10082000004002401E1C279AB80000200000000073
:1008300099070A08704710B50446182100F05EFBBE
:10084000204610BDF8B50E46002400F10807051D2E
:1008500017F8011D0A223046FFF7FDFEAF4204449F
:1008600001D12046F8BD002CF2D02E213046FFF7F2
:10087000EFFE0444ECE7000010B50446044B1122DF
:10088000002140F8043B00F01FFF204610BD00BFD0
:1008900074180A080346074A10B543F8042B01F1FF
:1008A000100251F8044B914243F8044BF9D10A78F5
:1008B0001A7010BD74180A08024AC0E90021042207
:1008C0000275704774180A0810B59DF8084044EA8C
:1008D0000324042344EA024444EA016444600375A7
:1008E00010BD000037B5044D05609DF81850009507
:1008F000FFF7EAFF03B030BD74180A08417470476F
:100900007047704708B50021007CFFF72FFD40EAD3
:10091000E07008BD08B50121007CFFF727FD40EA23
:10092000E07008BD08B5007CFFF718FD20EAE07014
:1009300008BD08B5007CFFF709FD20EAE07008BD9E
:1009400038B50446007C0D46FFF708FD002801DCA1
:10095000607C28B12946207CFFF710FD20EAE0707A
:1009600038BD007CFFF712BD10B50446142100F01D
:10097000C5FA204610BD704710B54FF47A7304468F
:1009800008460021C4E90113044B207423600123AD
:1009900011466374FFF7D2FC204610BD88180A0880
:1009A00010B504461422002100F08EFE054B2046AF
:1009B0006360054BE36040F20113238181232382AE
:1009C00010BD00BFF0000020F101002030B50E4D39
:1009D00087B001A8FFF7E4FF2978BFF35B8F11F020
:1009E00001040ED12846FFF75CFB50B1214601AA55
:1009F0000648FFF7C1FF2846FFF758FB044800F000
:100A00004FFE024807B030BDC0000020C8000020E3
:100A100001090A0810B504461422002100F054FE12
:100A2000054B20466360054BE36040F201132381D0
:100A30008123238210BD00BF7202002073030020B7
:100A400010B50E4C86B001A8FFF7E4FF2378BFF382
:100A50005B8FDB070ED42046FFF723FB50B101214B
:100A600001AA0748FFF788FF2046FFF71FFB05484C
:100A700000F016FE024806B010BD00BFC400002002
:100A8000DC00002077090A087047417470477047FE
:100A900008B5007CFFF700FC20EAE07008BD08B54F
:100AA000007CFFF7D1FB20EAE07008BD08B5007CB0
:100AB000FFF7DAFB40EAE07008BD08B5007CFFF7FD
:100AC000CBFB40EAE07008BD007CFFF7D5BB70B5FA
:100AD000467C04460D462EB12946207CBDE8704078
:100AE000FFF7AABB007CFFF7D7FB0028F4DC3046F9
:100AF00070BD10B50446142100F000FA204610BD68
:100B00004FF0000C10B50446084611464FF47A72B7
:100B1000C4E901C2044A20742260012262741A46A8
:100B2000FFF782FB204610BDB8180A0838B50C4DF7
:100B30002978BFF35B8F11F001040FD12846FFF72E
:100B4000B0FA58B12146074B074A0848FFF7D8FFCB
:100B50002846FFF7ABFA064800F0A2FD034838BD6F
:100B6000F40300207C040020F8030020000500208E
:100B70008F0A0A087047F8B5064615460C468F18C6
:100B8000BC4206D0336830469B6814F8011B984776
:100B9000F6E72846F8BD0022007CFFF785BB002160
:100BA000007CFFF789BB0021007CFFF78DBB002193
:100BB000007CFFF791BB0021007CFFF795BB10B5CF
:100BC0000446142100F09AF9204610BD10B54FF4E8
:100BD0007A73044608460021C4E90113034B114609
:100BE00023602074FFF790FB204610BDE8180A0828
:100BF000002240681146FFF715BCF0B5154689B0D4
:100C000011220E460446002103A800F05DFD28468F
:100C100000F086FD002781B273682846009703AA7A
:100C2000FFF7BCFB30B139462046FFF745FE2046B2
:100C300009B0F0BD204603A9FFF72CFEF7E700221C
:100C400040681146FFF70EBC002240681146FFF7CE
:100C500019BC00224068FFF70DBC0022406881F0FB
:100C60000101FFF7F7BB002340681A461946FFF75A
:100C7000E9BB002240681146FFF7C4BB00220221F5
:100C80004068FFF7C7BB002340681A46FFF7B2BBB6
:100C90000422024B5A60024A1A6070471405002071
:100CA00010190A08002340681A46FFF7A3BB002268
:100CB00002214068FFF7AEBB002240681146FFF7F3
:100CC000A1BB002240681146FFF7ACBB002340687F
:100CD0001A461946FFF7AEBB002340681A4619466C
:100CE000FFF7B0BB00214068FFF7D4BB002140688C
:100CF000FFF7D8BB0022406881F00101FFF7AABBD3
:100D000000224068FFF7B6BB002240681146FFF79B
:100D1000B9BB002240681146FFF7A4BB70B5154669
:100D20008EB0044608A8FFF7A7FD1122002103A8F2
:100D300000F0CAFC0026284600F0F2FC0A4B0096A0
:100D400081B25B68284603AAFFF728FB30B1314621
:100D50002046FFF7B1FD20460EB070BD204603A926
:100D6000FFF798FDF7E700BF14050020024B034A88
:100D70001A6000225A6070471C0500204C190A08AE
:100D8000024B986808B1FFF747BA70472805002062
:100D9000172870B5044601D9002070BDA0F10D03DD
:100DA000022B0BD9012824D800F084F80021007C04
:100DB000FFF7A2FA80F00100C0B2EEE7124E3178E0
:100DC000BFF35B8F11F001050DD13046FFF769F9D4
:100DD00048B129460D48FFF79DFB3046FFF766F9FD
:100DE0000B4800F05DFC094B1878FFF79FFA0028CC
:100DF000D2D1123C012C05D8FFF798FE007CFFF7FA
:100E000043FAD7E70120C8E7240500202805002081
:100E1000810D0A08172838B504460D460AD8FF295F
:100E200008D0FFF7B5FF28B129462046BDE8384075
:100E3000FFF7CAB938BD10B5044609289CBF0A346B
:100E4000A4B22046FFF7A4FF50B103212046FFF7CC
:100E5000B3F9032804D12046BDE81040FFF7BCB920
:100E6000002010BD002307B51A4619460093034819
:100E7000FFF738FD03B05DF804FB00BF3805002024
:100E800070470000002370B5202543801423084ECE
:100E900004460380314685600561284600F030F83D
:100EA00031466060284600F02BF8E060204670BDB7
:100EB00080190A0830B50E4D87B02978BFF35B8FD3
:100EC00011F0010411D12846FFF7EBF868B101A831
:100ED000FFF7D8FF214601AA0648FFF777FE28460C
:100EE000FFF7E4F8044800F0DBFB024807B030BD30
:100EF0005005002054050020810E0A08FFF7CFB8E6
:100F0000FFF7CBB881F0004102E000BF83F000435F
:100F100030B54FEA41044FEA430594EA050F08BF94
:100F200090EA020F1FBF54EA000C55EA020C7FEA58
:100F3000645C7FEA655C00F0E2804FEA5454D4EBD5
:100F40005555B8BF6D420CDD2C4480EA020281EA9F
:100F5000030382EA000083EA010180EA020281EAD7
:100F60000303362D88BF30BD11F0004F4FEA013129
:100F70004FF4801C4CEA113102D0404261EB410138
:100F800013F0004F4FEA03334CEA133302D05242BE
:100F900063EB430394EA050F00F0A780A4F101047A
:100FA000D5F1200E0DDB02FA0EFC22FA05F28018B4
:100FB00041F1000103FA0EF2801843FA05F359419A
:100FC0000EE0A5F120050EF1200E012A03FA0EFC19
:100FD00028BF4CF0020C43FA05F3C01851EBE37143
:100FE00001F0004507D54FF0000EDCF1000C7EEB60
:100FF00000006EEB0101B1F5801F1BD3B1F5001F9E
:101000000CD349085FEA30004FEA3C0C04F10104BC
:101010004FEA445212F5800F80F09A80BCF1004FE5
:1010200008BF5FEA500C50F1000041EB045141EA67
:10103000050130BD5FEA4C0C404141EB0101013C30
:1010400028BFB1F5801FE9D291F0000F04BF01461F
:101050000020B1FA81F308BF2033A3F10B03B3F1F1
:1010600020020CDA0C3208DD02F1140CC2F10C0281
:1010700001FA0CF021FA02F10CE002F11402D8BFDF
:10108000C2F1200C01FA02F120FA0CFCDCBF41EAAB
:101090000C019040E41AA2BF01EB0451294330BD7A
:1010A0006FEA04041F3C1CDA0C340EDC04F1140457
:1010B000C4F1200220FA04F001FA02F340EA03002E
:1010C00021FA04F345EA030130BDC4F10C04C4F174
:1010D000200220FA02F001FA04F340EA0300294654
:1010E00030BD21FA04F0294630BD94F0000F83F49E
:1010F000801306BF81F480110134013D4EE77FEA81
:10110000645C18BF7FEA655C29D094EA050F08BFCC
:1011100090EA020F05D054EA000C04BF19461046AD
:1011200030BD91EA030F1EBF0021002030BD5FEAF1
:10113000545C05D14000494128BF41F0004130BD19
:1011400014F580043CBF01F5801130BD01F000456D
:1011500045F0FE4141F470014FF0000030BD7FEAE0
:10116000645C1ABF194610467FEA655C1CBF0B46DB
:10117000024650EA013406BF52EA033591EA030FF2
:1011800041F4002130BD00BF90F0000F04BF0021EA
:10119000704730B54FF4806404F132044FF000051D
:1011A0004FF0000150E700BF90F0000F04BF002196
:1011B000704730B54FF4806404F1320410F00045FC
:1011C00048BF40424FF000013EE700BF42004FEAF7
:1011D000E2014FEA31014FEA02701FBF12F07F4374
:1011E00093F07F4F81F06051704732F07F4208BF2B
:1011F000704793F07F4F04BF41F40021704730B532
:101200004FF4607401F0004521F000411CE700BF7D
:1012100050EA010208BF704730B54FF000050AE000
:1012200050EA010208BF704730B511F0004502D501
:10123000404261EB41014FF4806404F132045FEA03
:10124000915C3FF4D8AE4FF003025FEADC0C18BFAC
:1012500003325FEADC0C18BF033202EBDC02C2F19E
:10126000200300FA03FC20FA02F001FA03FE40EA30
:101270000E0021FA02F11444BDE600BF70B54FF034
:10128000FF0C4CF4E06C1CEA11541DBF1CEA135512
:1012900094EA0C0F95EA0C0F00F0DEF82C4481EA7A
:1012A000030621EA4C5123EA4C5350EA013518BF9A
:1012B00052EA033541F4801143F4801338D0A0FB87
:1012C00002CE4FF00005E1FB02E506F00042E0FB34
:1012D00003E54FF00006E1FB03569CF0000F18BF3A
:1012E0004EF0010EA4F1FF04B6F5007F64F54074E2
:1012F00004D25FEA4E0E6D4146EB060642EAC62175
:1013000041EA55514FEAC52040EA5E504FEACE2EE1
:10131000B4F1FD0C88BFBCF5E06F1ED8BEF1004FE4
:1013200008BF5FEA500E50F1000041EB045170BD60
:1013300006F0004646EA010140EA020081EA0301A4
:10134000B4EB5C04C2BFD4EB0C0541EA045170BDA0
:1013500041F480114FF0000E013C00F3AB8014F11A
:10136000360FDEBF002001F0004170BDC4F1000463
:10137000203C35DA0C341BDC04F11404C4F12005E4
:1013800000FA05F320FA04F001FA05F240EA02003F
:1013900001F0004221F0004110EBD37021FA04F675
:1013A00042EB06015EEA430E08BF20EAD37070BD2F
:1013B000C4F10C04C4F1200500FA04F320FA05F08E
:1013C00001FA04F240EA020001F0004110EBD37090
:1013D00041F100015EEA430E08BF20EAD37070BD00
:1013E000C4F1200500FA05F24EEA020E20FA04F3D9
:1013F00001FA05F243EA020321FA04F001F0004188
:1014000021FA04F220EA020000EBD3705EEA430EF8
:1014100008BF20EAD37070BD94F0000F0FD101F027
:101420000046400041EB010111F4801F08BF013C60
:10143000F7D041EA060195F0000F18BF704703F09E
:101440000046520043EB030313F4801F08BF013D25
:10145000F7D043EA0603704794EA0C0F0CEA1355E1
:1014600018BF95EA0C0F0CD050EA410618BF52EA9B
:101470004306D1D181EA030101F000414FF00000A1
:1014800070BD50EA410606BF1046194652EA4306AF
:1014900019D094EA0C0F02D150EA013613D195EA23
:1014A0000C0F05D152EA03361CBF104619460AD16B
:1014B00081EA030101F0004141F0FE4141F4700175
:1014C0004FF0000070BD41F0FE4141F4780170BD65
:1014D00070B54FF0FF0C4CF4E06C1CEA11541DBFCA
:1014E0001CEA135594EA0C0F95EA0C0F00F0A7F8CC
:1014F000A4EB050481EA030E52EA03354FEA0131F9
:1015000000F088804FEA03334FF0805545EA13130B
:1015100043EA12634FEA022245EA111545EA1065D3
:101520004FEA00260EF000419D4208BF964244F16A
:10153000FD0404F5407402D25B084FEA3202B61A89
:1015400065EB03055B084FEA32024FF480104FF45D
:10155000002CB6EB020E75EB030E22BFB61A7546D1
:1015600040EA0C005B084FEA3202B6EB020E75EB64
:10157000030E22BFB61A754640EA5C005B084FEACC
:101580003202B6EB020E75EB030E22BFB61A754699
:1015900040EA9C005B084FEA3202B6EB020E75EBA4
:1015A000030E22BFB61A754640EADC0055EA060E65
:1015B00018D04FEA051545EA16754FEA06164FEAA8
:1015C000C30343EA52734FEAC2025FEA1C1CC0D154
:1015D00011F4801F0BD141EA00014FF000004FF0E1
:1015E000004CB6E711F4801F04BF01430020B4F1A2
:1015F000FD0C88BFBCF5E06F3FF6AFAEB5EB030C5A
:1016000004BFB6EB020C5FEA500C50F1000041EB56
:10161000045170BD0EF0004E4EEA113114EB5C0423
:10162000C2BFD4EB0C0541EA045170BD41F48011F6
:101630004FF0000E013C90E645EA060E8DE60CEAFE
:10164000135594EA0C0F08BF95EA0C0F3FF43BAF1B
:1016500094EA0C0F0AD150EA01347FF434AF95EAD2
:101660000C0F7FF425AF104619462CE795EA0C0FB6
:1016700006D152EA03353FF4FDAE1046194622E783
:1016800050EA410618BF52EA43067FF4C5AE50EA5D
:1016900041047FF40DAF52EA43057FF4EBAE12E74D
:1016A000002301461A46184600F042B80A44914207
:1016B00000F1FF3300D1704710B511F8014B914292
:1016C00003F8014FF9D110BD03460244934200D103
:1016D000704703F8011BF9E738B50D4B04461D6848
:1016E000AB6B7BB91820FEF7F5FE0A4A0A4BA863DC
:1016F000C0E90023094B012283600B23838100236F
:10170000C0E904230022AB6B1C615A6138BD00BFE5
:10171000080000200E33CDAB34126DE6ECDE050080
:10172000034613F8012B002AFBD1181A0138704721
:101730002DE9F843DFF8BC800646D8F800001F46C4
:101740000D46914600F058F8264B1C6834B9264CDB
:101750001C60264B13B11B68C4F8883063681F2BCC
:1017600007DDD8F8000000F049F84FF0FF30BDE881
:10177000F8835EB3D4F8880088B91D4B23B9D8F834
:10178000000000F03AF8F0E74FF48470FEF7A2FE94
:101790000028F4D00023C0E94033C4F888000122B7
:1017A0006368022E40F8239002FA03F200EB8301F3
:1017B000D0F8003143EA0203C0F80031C1F880706C
:1017C00002BFD0F804311A43C0F804216368D8F886
:1017D00000005A1C0233626044F8235000F00EF8F7
:1017E0000020C4E7F4050020680500200000000088
:1017F000D5040A086C00002070477047704700004D
:1018000021000A0861000A0889000A088D000A08F8
:1018100000000000666C616700616E616C6F677646
:10182000616C75650074656D70006D657373006D36
:1018300065737332006D79206E616D652069732068
:101840007061727469636C65006170700025592D58
:10185000256D2D25645425483A254D3A2553257A82
:101860000061736374696D65000000000000000092
:101870000000000045080A0835080A0837080A0869
:10188000000000000000000003090A0869090A08B6
:1018900041090A0805060A0833090A0805090A0861
:1018A00015090A0863090A0825090A08FD080A0833
:1018B0000000000000000000890A0A08F30A0A0874
:1018C000CF0A0A0805060A089F0A0A08BB0A0A087E
:1018D000AD0A0A08C90A0A088B0A0A08910A0A0806
:1018E0000000000000000000750B0A08BF0B0A088A
:1018F000970B0A08770B0A089F0B0A08A70B0A0820
:10190000AF0B0A08B70B0A08000000000000000037
:10191000870C0A087D0C0A08730C0A08F10B0A08E8
:1019200091060A08670C0A08E50C0A08ED0C0A087B
:101930005B0C0A08530C0A08490C0A083F0C0A08F9
:10194000FB0B0A080000000000000000A50C0A08BC
:10195000AF0C0A08B90C0A08C30C0A08CD0C0A0817
:10196000D90C0A08E50C0A08ED0C0A08F50C0A085F
:10197000010D0A08090D0A08130D0A081D0D0A08B1
:1019800000000000A9010A0835050A089D060A089A
:10199000AD060A08C9060A08910C0A086D0D0A0866
:1019A000650E0A08000000000000000000000000B2
:0419B0000000000033
:1019B40035180A0861180A080C000020000000000D
:1019C4000000000000000000000000000000000013
:1019D4000000000000000000000000000000000003
:1019E40000000000000000000000000000000000F3
:1019F40000000000000000000000000000000000E3
:101A040000000000000000000000000000000000D2
:101A1400000000000000000000000000F9050020A4
:101A2400FFFFFFFF00000102030405060708090A7F
:101A34000B0C0D0E0F101112131415161718191A7A
:081A44001B1C1D1E1F202800C1
:041A4C007856341282
:04000005080A0020C5
:00000001FF
