:02000002D0002C
:1040000000400D00284E0D00000006000C000501C8
:084010000401FD08000000009E
:04401800044C0D0047
:10401C0009480A49884208B505D0094A824202D0AB
:10402C00121A00F041FD0748074A0021121A00F04D
:10403C0049FD014808BD00BF3CE50320944D0D002F
:10404C00A8E50320A8E50320EDE7032070B5074E93
:10405C00074C00F0BBFBA41BA4080025A54200D113
:10406C0070BD56F8043B98470135F7E7604D0D00DD
:10407C008C4D0D0000F011B808B500F00FF8BDE83C
:10408C00084000F05BBB00F047B90078B0FA80F054
:10409C004009704701230370704770477047000058
:1040AC00024B0022C3E900229A607047A8E5032066
:1040BC00024B0022C3E900229A607047B4E503204A
:1040CC00024B0022C3E900229A607047C0E503202E
:1040DC0008B5024B1B681B68019308BD4C0203001A
:1040EC0008B5024B1B681B69019308BD4C02030009
:1040FC0008B5024B1B685B69019308BD4C020300B9
:10410C0008B5024B1B689B69019308BD4C02030068
:10411C0008B5024B1B68DB69019308BD4C02030018
:10412C0008B5024B1B681B6A019308BD4C020300C7
:10413C0008B5024B1B681B68019308BD3C020300C9
:10414C0008B5024B1B68DB68019308BD3C020300F9
:10415C0008B5024B1B681B69019308BD3C020300A8
:10416C0008B5024B1B685B69019308BD3C02030058
:10417C0008B5024B1B689B69019308BD3C02030008
:10418C0008B5024B1B68DB69019308BD3C020300B8
:10419C0008B5024B1B689B6A019308BD3C020300E7
:1041AC0008B5024B1B685B69019308BD64020300F0
:1041BC0008B5024B1B685B6C019308BD48020300F9
:1041CC0008B5024B1B685B68019308BD180203001D
:1041DC0008B5024B1B685B69019308BD180203000C
:1041EC0008B5024B1B689B68019308BD680203006D
:1041FC0008B5024B1B68DB68019308BD680203001D
:10420C0008B5024B1B68DB6B019308BD440203002D
:10421C0008B5024B1B685B68019308BD40020300A4
:10422C0008B5024B1B689B68019308BD4002030054
:10423C0008B5024B1B68DB68019308BD4002030004
:10424C0008B5024B1B681B69019308BD40020300B3
:10425C0008B5024B1B685B69019308BD4002030063
:10426C0008B5024B1B689B69019308BD4002030013
:10427C0008B5024B1B68DB69019308BD40020300C3
:10428C0008B5024B1B681B6A019308BD4002030072
:10429C0008B5024B1B681B6B019308BD4002030061
:1042AC0008B5024B1B685B6B019308BD4002030011
:1042BC0008B5024B1B681B6C019308BD4002030040
:1042CC0008B5024B1B685B6C019308BD40020300F0
:1042DC0008B5024B1B685B68019308BD2002030004
:1042EC0008B5034B1B68D3F88830019308BD000058
:1042FC002002030008B5034B1B68D3F894300193DC
:10430C0008BD00002002030008B5024B1B681B68A7
:10431C00019308BD1C02030008B5024B1B685B68C7
:10432C00019308BD1C02030008B5024B1B685B6CB3
:10433C00019308BD1C020300002340681A46FFF7D6
:10434C0067BF406800220221FFF772BF002240685D
:10435C001146FFF765BF002240681146FFF770BF9A
:10436C00002340681A461946FFF772BF00234068C5
:10437C001A461946FFF774BF40680021FFF798BF33
:10438C0040680021FFF79CBF4068002281F00101CA
:10439C00FFF76EBF40680022FFF77ABF002240682B
:1043AC001146FFF77DBF002240681146FFF768BF3A
:1043BC002DE9F043002495B016460D46074600F053
:1043CC0063F9214618220EA8009400F07BFB4023D1
:1043DC00CDE90C3421466B460CAA3046FFF708FF9A
:1043EC000446002846D1024601216868FFF728FFE1
:1043FC000221804622466868FFF722FF009E814614
:10440C002146002E36D0002934D17368022B03D0FC
:10441C000A2B0BD0F669F4E7B8F1000F04D07169E0
:10442C003846043100F05DF94146F3E7B9F1000F6D
:10443C0001D14946EEE77469102201A800F042FB55
:10444C0006238DF8143001AD04F1080318341868F4
:10445C0059682A4603C20833A3421546F7D101A96D
:10446C0006A807AD00F01EF90FCD3C1D0FC42B683C
:10447C002370DEE70098FFF7B3FE384615B0BDE8B1
:10448C00F0830000024B034A1A6000225A60704706
:10449C00CCE50320204C0D00002240681146FFF7AC
:1044AC00CFBE002240681146FFF7EABE00224068EA
:1044BC001146FFF7F5BE40680022FFF7E9BE4068E1
:1044CC00002281F00101FFF7D3BE002340681A4699
:1044DC001946FFF7C5BE002340681A461946FFF778
:1044EC00B7BE002240681146FFF79ABE4068002212
:1044FC000221FFF79DBE002340681A46FFF788BED5
:10450C00024B04225A60024A1A607047D4E5032019
:10451C005C4C0D00417470477047704708B5002122
:10452C00007CFFF7EDFD40EAE07008BD08B5012105
:10453C00007CFFF7E5FD40EAE07008BD08B5007CA3
:10454C00FFF7D6FD20EAE07008BD08B5007CFFF748
:10455C00C7FD20EAE07008BD13B50446007C01914C
:10456C00FFF7C6FD0028019901DC607C20B1207C9E
:10457C00FFF7CEFD20EAE07002B010BD007CFFF723
:10458C00CFBD10B51421044600F086FA204610BDAC
:10459C0010B54FF47A73044608460021C4E90113A0
:1045AC00044B23600123207463741146FFF790FDC4
:1045BC00204610BD984C0D0010B514220446002165
:1045CC0000F080FA204610BD10B50F4C88B003A83F
:1045DC00FFF7F2FF2178BFF35B8F11F001010FD1D0
:1045EC0020460191FFF751FD019948B103AA0748F4
:1045FC00FFF7CEFF2046FFF74DFD054800F04EFAC1
:10460C00024808B010BD00BFDCE50320E0E5032044
:10461C0025450D00704710B51821044600F03CFAF2
:10462C00204610BDF0B5037D062B8DB00E4600F173
:10463C0004074FF0000412D000F1080515F8011D15
:10464C000A22304600F037F9AF42044419D0002C4E
:10465C00F4D02E21304600F02BF90444EEE72F2342
:10466C006A4639460A208DF80040FFF799FD6846E6
:10467C0000F054FA33680246DB68694630469847C6
:10468C00044620460DB0F0BD10B5054B0446112272
:10469C0040F8043B002100F015FA204610BD00BF85
:1046AC00C84C0D000346074A10B543F8042B01F122
:1046BC00100251F8044B43F8044B9142F9D10A789B
:1046CC001A7010BDC84C0D0010B59DF8084044EA96
:1046DC00032343EA024242EA016104234160037569
:1046EC0010BD13B5CB7800938B784A780978FFF717
:1046FC00EBFF02B010BD0000014B1860704700BF0B
:10470C0040E5032008B50B4B43B1FFF75DFF036891
:10471C001B699847002801DDAFF30080064B43B1BD
:10472C0000F044F903681B699847002801DDAFF3DA
:10473C00008008BD000000000000000008B5FFF775
:10474C00E1FFFFF745FD014B186008BD50E7032062
:10475C000548064A064908B5121A00F0A5F9054B9A
:10476C00054A1A6008BD00BF00F4032004F40320BE
:10477C00904D0D0000F403201E1C279A07B5002352
:10478C0000931A466FF07701FFF7B4FD03B05DF8A4
:10479C0004FB000007B543880A2B08D0502B0BD123
:1047AC00094B1B684BB103B05DF804EB1847FFF7DE
:1047BC00E5FF03B05DF804FB002300931A466FF08D
:1047CC007701FFF797FDF4E7F8E5032010B51248E1
:1047DC000021FFF7A9FD114B1A68114B9A42114B9E
:1047EC000CBF012200221A7001D0FFF7B1FFFFF7B6
:1047FC00E7FC044600F06EF90B4B13B12046AFF307
:10480C00008000210848FFF7FBFCBDE8104007487A
:10481C000021FFF765BD00BF05470D0000F4032024
:10482C001E1C279AF4E5032000000000A1470D0090
:10483C00014B00229A607047FCE50320024B1A687A
:10484C00024B1A60704700BF3CE503200CE60320C6
:10485C00014B024A1A60704710E60320F04C0D0021
:10486C00F8B506460D468F180024BD420CD03368AF
:10487C0015F8011B9B6830469847031E01DB1C444E
:10488C00F3E7002C08BF1C462046F8BD13B50446C0
:10489C00084659B1019100F041F923680199DB6890
:1048AC000246204602B0BDE81040184702B010BDC9
:1048BC0003689B68184730B58BB000238DF8243003
:1048CC00012A98BF0A2209AC0D46B1FBF2F101FB9B
:1048DC00125303F0FF03092B94BF30333733DBB291
:1048EC00AA4204F8013DEFD92146FFF7CFFF0BB0E8
:1048FC0030BD0000024800230360FFF759BC00BF25
:10490C0014E60320704741747047704708B5007C6B
:10491C00FFF73EFC20EAE07008BD08B5007CFFF70D
:10492C0017FC20EAE07008BD08B5007CFFF720FCFE
:10493C0040EAE07008BD08B5007CFFF711FC40EAC6
:10494C00E07008BD007CFFF71BBC37B5457C044606
:10495C002DB1207C03B0BDE83040FFF7F1BB007CEB
:10496C000191FFF715FC00280199F2DC284603B0F1
:10497C0030BD10B51421044600F08EF8204610BD51
:10498C0010B54FF0000C0446084611464FF47A72ED
:10499C00C4E901C2044A22600122207462741A46DE
:1049AC00FFF7C6FB204610BDFC4C0D0013B50D4C9B
:1049BC002178BFF35B8F11F0010110D120460191DA
:1049CC00FFF763FB019950B1074B084A0848FFF702
:1049DC00D7FF2046FFF75EFB064800F05FF804485F
:1049EC0002B010BD18E60320A0E603201CE603204D
:1049FC0024E7032017490D00054B02221A60054BD2
:104A0C00054A9A600020186098809871FFF760BC86
:104A1C0044E7032038E703200000FFFF0022406832
:104A2C001146FFF72DBC002240681146FFF738BC39
:104A3C0040680022FFF72CBC4068002281F0010185
:104A4C00FFF716BC002340681A461946FFF708BC4E
:104A5C00002340681A461946FFF7FABB002240684B
:104A6C001146FFF7EDBB002240681146FFF7D8BB9B
:104A7C00406800220221FFF7DBBB002340681A4686
:104A8C00FFF7C6BB024B03225A60024A1A607047FA
:104A9C0048E703202C4D0D00FFF7F5BA0023014623
:104AAC001A46184600F042B80A44914200F1FF330E
:104ABC0000D1704710B511F8014B03F8014F91422A
:104ACC00F9D110BD02440346934200D1704703F85C
:104ADC00011BF9E738B50D4B1D68AB6B04467BB970
:104AEC001820FFF711FC0A4A0A4BA863C0E90023FF
:104AFC00094B83600B23838101220023C0E904232B
:104B0C00AB6B00221C615A6138BD00BF40E503202D
:104B1C000E33CDAB34126DE6ECDE0500034613F814
:104B2C00012B002AFBD1181A013870472DE9F843E4
:104B3C00DFF8B8800646D8F800001F460D469146AF
:104B4C0000F056F8254B1C6834B9254C1C60254BDD
:104B5C0013B11B68C4F8883063681F2B07DDD8F8C5
:104B6C00000000F047F84FF0FF30BDE8F8834EB37B
:104B7C00D4F8880088B91C4B23B9D8F8000000F091
:104B8C0038F8F0E74FF48470FFF7BEFB0028F4D040
:104B9C000023C0E94033C4F88800636840F82390D0
:104BAC0001229A4000EB8301D0F800311343022E0E
:104BBC00C0F80031C1F8807002BFD0F804311A433C
:104BCC00C0F804216368D8F800005A1C02336260F4
:104BDC0044F8235000F00EF80020C6E7E0E703206D
:104BEC0054E703200000000015430D00A4E503204A
:104BFC0070477047704700001D400D0059400D0074
:104C0C0081400D0085400D000000000000000000F8
:104C1C000000000045430D004F430D0059430D00AB
:104C2C0063430D006D430D0079430D0085430D006A
:104C3C008D430D0095430D00A1430D00A9430D00BC
:104C4C00B3430D00BD430D00000000000000000048
:104C5C0003450D00F9440D00EF440D00A5440D0073
:104C6C00E3440D00D7440D0085430D008D430D002A
:104C7C00CB440D00C3440D00B9440D00AF440D00EE
:104C8C00BD430D00000000000000000027450D0092
:104C9C008F450D0065450D006D480D0057450D0005
:104CAC0029450D0039450D0089450D0049450D007C
:104CBC0021450D00000000000000000031460D00F1
:104CCC0021460D0023460D0025592D256D2D2564FB
:104CDC005425483A254D3A2553257A00617363745F
:104CEC00696D65006170700000000000000000003C
:104CFC0011490D007F490D0057490D006D480D00FD
:104D0C0027490D0043490D0035490D0051490D004F
:104D1C0013490D0019490D000000000000000000AF
:104D2C00874A0D007D4A0D00734A0D00694A0D003B
:104D3C005D4A0D00514A0D0085430D008D430D0059
:104D4C00454A0D003D4A0D00334A0D00294A0D001D
:104D5C00BD430D00AD400D00BD400D00CD400D001C
:104D6C0091440D000D450D003D480D0049480D00C6
:104D7C005D480D0001490D00054A0D00914A0D00DA
:044D8C000000000023
:044D9000000000001F
:104D9400E84C0D0044E50320000000000000000082
:104DA40000000000000000000000000000000000FF
:104DB40000000000000000000000000000000000EF
:104DC40000000000000000000000000000000000DF
:104DD40000000000000000000000000000000000CF
:104DE40000000000000000000000000000000000BF
:0C4DF4000000000000000000E5E70320C4
:104E0000FFFFFFFF00000102030405060708090A6F
:104E10000B0C0D0E0F101112131415161718191A6A
:084E20001B1C1D1E1F202800B1
:044E28007856341272
:04000003D000401CCD
:00000001FF
