:02000002D0002C
:1040000000400D00A8530D00000006000C00050143
:084010000401FD08000000009E
:0440180048510D00FE
:10401C0009480A49884208B505D0094A824202D0AB
:10402C00121A00F0DAFF0748074A0021121A00F0B2
:10403C00E2FF014808BD00BF38E5032014530D0012
:10404C00A4E50320A4E50320EDE7032070B5074E9B
:10405C00074C00F01FFCA41BA4080025A54200D1AE
:10406C0070BD56F8043B98470135F7E7E4520D0054
:10407C0004530D0000F038B808B500F071F8BDE835
:10408C00084000F0BFBB00F01FBA00F01DBA00F0F2
:10409C0023BA0078B0FA80F040097047012303700E
:1040AC0070470000024B187880F0010018707047C0
:1040BC00A4E50320012A03D0022A03D00020704774
:1040CC000160FBE70B680360F8E71FB504686846FE
:1040DC0000F0F8FA6846A0470446684600F076FA05
:1040EC00204604B010BD00001FB50121072000F0D0
:1040FC00FFFE144914480023012200F0CDF9134BA4
:10410C000093134B03931020124B0293FFF7BBFF4A
:10411C00044678B100238360029B33B102226946C6
:10412C009847039BE360029BA3600B4A0B48214614
:10413C0000F0F6FB029B1BB1694603220846984728
:10414C0004B010BDA4E503205C510D00B1400D007E
:10415C00D7400D00C1400D0063510D0005490D0005
:10416C0010B5094C0720217800F0D3FE237823B139
:10417C0000F0B4FC054900F0E1FABDE8104040F64F
:10418C00C41000F013BB00BFA4E5032067510D0061
:10419C0008B5024B1B689B68019308BD68020300BD
:1041AC0008B5024B1B68DB68019308BD680203006D
:1041BC0008B5024B1B689B68019308BD2C020300D9
:1041CC0008B5024B1B68DB68019308BD2C02030089
:1041DC0008B5024B1B681B69019308BD2C02030038
:1041EC0008B5024B1B685B68019308BD18020300FD
:1041FC0008B5024B1B685B69019308BD18020300EC
:10420C0008B5024B1B685B6C019308BD48020300A8
:10421C0008B5024B1B685B69019308BD640203007F
:10422C0008B5024B1B681B68019308BD3C020300D8
:10423C0008B5024B1B68DB68019308BD3C02030008
:10424C0008B5024B1B681B69019308BD3C020300B7
:10425C0008B5024B1B685B69019308BD3C02030067
:10426C0008B5024B1B689B69019308BD3C02030017
:10427C0008B5024B1B68DB69019308BD3C020300C7
:10428C0008B5024B1B681B6A019308BD3C02030076
:10429C0008B5024B1B689B6A019308BD3C020300E6
:1042AC0008B5024B1B681B6A019308BD280203006A
:1042BC0008B5024B1B685B6A019308BD280203001A
:1042CC0008B5024B1B689B6A019308BD28020300CA
:1042DC0008B5024B1B68DB6A019308BD280203007A
:1042EC0008B5024B1B681B6B019308BD2802030029
:1042FC0008B5024B1B685B6B019308BD28020300D9
:10430C0008B5024B1B681B6C019308BD2802030007
:10431C0008B5024B1B68DB69019308BD3002030032
:10432C0008B5024B1B681B6A019308BD30020300E1
:10433C0008B5024B1B681B68019308BD4C020300B7
:10434C0008B5024B1B681B69019308BD4C020300A6
:10435C0008B5024B1B685B69019308BD4C02030056
:10436C0008B5024B1B689B69019308BD4C02030006
:10437C0008B5024B1B68DB69019308BD4C020300B6
:10438C0008B5024B1B681B6A019308BD4C02030065
:10439C0008B5024B1B685B68019308BD2002030043
:1043AC0008B5024B1B685B69019308BD2002030032
:1043BC0008B5034B1B68D3F88830019308BD000087
:1043CC002002030008B5034B1B68D3F8943001930B
:1043DC0008BD00002002030008B5024B1B685B6897
:1043EC00019308BD4002030008B5024B1B689B6893
:1043FC00019308BD4002030008B5024B1B68DB6843
:10440C00019308BD4002030008B5024B1B681B69F1
:10441C00019308BD4002030008B5024B1B685B69A1
:10442C00019308BD4002030008B5024B1B689B6951
:10443C00019308BD4002030008B5024B1B68DB6901
:10444C00019308BD4002030008B5024B1B681B6AB0
:10445C00019308BD4002030008B5024B1B681B6B9F
:10446C00019308BD4002030008B5024B1B685B6B4F
:10447C00019308BD4002030008B5024B1B681B6C7E
:10448C00019308BD4002030008B5024B1B685B6C2E
:10449C00019308BD4002030008B5024B1B681B6862
:1044AC00019308BD4402030008B5024B1B685B680E
:1044BC00019308BD4402030008B5024B1B68DB6B7B
:1044CC00019308BD4402030008B5024B1B681B682E
:1044DC00019308BD1C02030008B5024B1B685B6806
:1044EC00019308BD1C02030008B5024B1B689B68B6
:1044FC00019308BD1C02030008B5024B1B68DB6A64
:10450C00019308BD1C02030008B5024B1B685B6CD1
:10451C00019308BD1C020300002240681146FFF7FE
:10452C0093BF002240681146FFF79EBF40680022EF
:10453C00FFF792BF4068002281F00101FFF77CBFBA
:10454C00002340681A461946FFF76EBF00234068E7
:10455C001A461946FFF760BF002240681146FFF764
:10456C0053BF002240681146FFF73EBF406800224F
:10457C000221FFF741BF002340681A46FFF72CBF0A
:10458C00024B03225A60024A1A607047A8E50320C6
:10459C0078510D0010B5044608462170FFF7B8FE9F
:1045AC0000236360204610BD054B02221A60054BA8
:1045BC00054A9A600020186098809871FFF7E8BE51
:1045CC00BCE50320B0E503200000FFFF10B5044656
:1045DC000068FFF781FF204610BD10B50446006847
:1045EC0008B1FFF779FF0023C4E90133236010BD44
:1045FC0038B504460D4600680131FFF775FF10B160
:10460C00C4E90005012038BD10B50368044623B188
:10461C0043688B4201D3012010BD2046FFF7E8FF11
:10462C000028F9D0A368002BF5D122681370F2E7AB
:10463C0037B50D46114601920446FFF7E5FF019A86
:10464C0028B92046FFF7C9FF204603B030BDA26051
:10465C002946206800F0C1FC2268A3680021D154CF
:10466C00F2E7002313B5C0E90033044683600373FB
:10467C0041B10846019100F0F3FC01990246204635
:10468C00FFF7D6FF204602B010BD38B505460068CE
:10469C000C4668B16A688B689A4207D3096800F0C7
:1046AC00D7FCA368AB600023A36038BDFFF714FFF1
:1046BC0023682B6063686B60A368AB600023C4E95C
:1046CC000033F1E710B50023C0E9003304468360E2
:1046DC000373FFF7DAFF204610BD000002480023E9
:1046EC000360FFF78DBD00BFC0E50320F8B506469B
:1046FC000D468F180024BD420CD0336815F8011BF1
:10470C009B6830469847031E01DB1C44F3E7002CE2
:10471C0008BF1C462046F8BD13B50446084659B1DF
:10472C00019100F09DFC23680199DB68024620464C
:10473C0002B0BDE81040184702B010BD08B5FFF735
:10474C00EBFF08BD03689B68184730B58BB000239E
:10475C008DF82430012A98BF0A2209AC0D46B1FB12
:10476C00F2F101FB125303F0FF03092B94BF30331A
:10477C003733DBB2AA4204F8013DEFD92146FFF7EB
:10478C00CBFF0BB030BD0000014B024A1A607047E2
:10479C00C4E50320AC510D00024B1A68024B1A60A1
:1047AC00704700BF38E50320C8E503200021FFF760
:1047BC00F7BD0000014B00229A607047CCE5032046
:1047CC00014B1860704700BF3CE5032008B50B4B4C
:1047DC0043B100F083F903681B699847002801DD99
:1047EC00AFF30080064B43B100F0F2F903681B698C
:1047FC009847002801DDAFF3008008BD00000000E1
:10480C000000000008B5FFF7E1FFFFF7F1FC014BDA
:10481C00186008BD38E703200548064A064908B564
:10482C00121A00F0DAFB054B054A1A6008BD00BFEE
:10483C0000F4032004F4032010530D0000F40320B3
:10484C001E1C279A07B5002300931A466FF07701B8
:10485C00FFF7B8FD03B05DF804FB000007B5438813
:10486C000A2B08D0502B0BD1094B1B684BB103B052
:10487C005DF804EB1847FFF7E5FF03B05DF804FBA8
:10488C00002300931A466FF07701FFF79BFDF4E7C6
:10489C00E0E5032010B512480021FFF735FE114B5F
:1048AC001A68114B9A42114B0CBF012200221A704C
:1048BC0001D0FFF7B1FFFFF793FC044600F0A4FB17
:1048CC000B4B13B12046AFF3008000210848FFF7D3
:1048DC00F3FDBDE8104007480021FFF769BD00BF9C
:1048EC00CD470D0000F403201E1C279ADCE50320A5
:1048FC000000000069480D001FB504466846FFF72C
:10490C00B0FEA3680BB900F05FFBE3686946204674
:10491C00984704466846FFF759FE204604B010BD80
:10492C001FB50023CDE90201019210241A466946F5
:10493C001846ADF80230ADF80040FFF7B5FD04B0F5
:10494C0010BD704710B51821044600F039FB204605
:10495C0010BDF0B5037D062B8DB00E4600F104079B
:10496C004FF0000412D000F1080515F8011D0A22C1
:10497C003046FFF7EAFEAF42044419D0002CF4D0C5
:10498C002E213046FFF7DEFE0444EEE72F236A4665
:10499C0039460A208DF80040FFF73AFC684600F0D3
:1049AC005FFB33680246DB6869463046984704462D
:1049BC0020460DB0F0BD000010B5054B0446112289
:1049CC0040F8043B002100F016FB204610BD00BF50
:1049DC00D4510D000346074A10B543F8042B01F1DE
:1049EC00100251F8044B43F8044B9142F9D10A7868
:1049FC001A7010BDD4510D0010B59DF8084044EA52
:104A0C00032343EA024242EA016104234160037535
:104A1C0010BD13B5CB7800938B784A780978FFF7E3
:104A2C00EBFF02B010BD417470477047704708B57A
:104A3C000021007CFFF794FC40EAE07008BD08B54B
:104A4C000121007CFFF78CFC40EAE07008BD08B542
:104A5C00007CFFF77DFC20EAE07008BD08B5007C07
:104A6C00FFF76EFC20EAE07008BD13B50446007C2D
:104A7C000191FFF76DFC0028019901DC607C20B1ED
:104A8C00207CFFF775FC20EAE07002B010BD007CC2
:104A9C00FFF776BC10B51421044600F091FA2046BD
:104AAC0010BD000010B54FF47A730446084600217F
:104ABC00C4E90113044B2360012320746374114671
:104ACC00FFF736FC204610BDE8510D0010B514223E
:104ADC000446002100F08FFA204610BD10B50F4C93
:104AEC0088B003A8FFF7F2FF2178BFF35B8F11F0BA
:104AFC0001010FD120460191FFF7CBFA019948B182
:104B0C0003AA0748FFF7CEFF2046FFF7C7FA054870
:104B1C0000F05DFA024808B010BD00BFE4E50320C8
:104B2C00E8E50320374A0D00704741747047704721
:104B3C0008B5007CFFF7ACFB20EAE07008BD08B5B7
:104B4C00007CFFF77DFB20EAE07008BD08B5007C17
:104B5C00FFF786FB40EAE07008BD08B5007CFFF764
:104B6C0077FB40EAE07008BD007CFFF781BB37B5EE
:104B7C00457C04462DB1207C03B0BDE83040FFF7E6
:104B8C0057BB007C0191FFF783FB00280199F2DCF5
:104B9C00284603B030BD10B51421044600F010FABD
:104BAC00204610BD10B54FF0000C044608461146C7
:104BBC004FF47A72C4E901C2044A226001222074C3
:104BCC0062741A46FFF72CFB204610BD18520D00DC
:104BDC0013B50D4C2178BFF35B8F11F0010110D18F
:104BEC0020460191FFF755FA019950B1074B084A3D
:104BFC000848FFF7D7FF2046FFF750FA064800F0A9
:104C0C00E6F9044802B010BDFCE5032084E603205D
:104C1C0000E6032008E703203B4B0D007047F8B576
:104C2C00064615460C468F18BC4206D0336814F85D
:104C3C00011B9B6830469847F6E72846F8BD007C78
:104C4C000022FFF72DBB007C0021FFF731BB007C5D
:104C5C000021FFF735BB007C0021FFF739BB007C3E
:104C6C000021FFF73DBB10B51421044600F0A8F954
:104C7C00204610BD10B54FF47A7304460846002147
:104C8C00C4E90113034B236020741146FFF738FB72
:104C9C00204610BD48520D00002240681146FFF717
:104CAC00B3BB002240681146FFF7CEBB0022406820
:104CBC001146FFF7D9BB40680022FFF7CDBB406817
:104CCC00002281F00101FFF7B7BB002340681A46B0
:104CDC001946FFF7A9BB002340681A461946FFF78F
:104CEC009BBB002240681146FFF77EBB4068002248
:104CFC000221FFF781BB002340681A46FFF76CBB0B
:104D0C00024B04225A60024A1A6070471CE70320C7
:104D1C0070520D00002340681A46FFF75DBB4068D7
:104D2C0000220221FFF768BB002240681146FFF702
:104D3C005BBB002240681146FFF766BB002340684E
:104D4C001A461946FFF768BB002340681A461946F5
:104D5C00FFF76ABB40680021FFF78EBB406800215B
:104D6C00FFF792BB4068002281F00101FFF764BBA2
:104D7C0040680022FFF770BB002240681146FFF725
:104D8C0073BB002240681146FFF75EBB2DE9F04370
:104D9C00002495B016460D460746FFF70DFE21463A
:104DAC0018220EA8009400F026F94023CDE90C340B
:104DBC0021466B460CAA3046FFF7F2F90446002850
:104DCC0046D1024601216868FFF71EFB022180468E
:104DDC0022466868FFF718FB009E81462146002E8C
:104DEC0036D0002934D17368022B03D00A2B0BD098
:104DFC00F669F4E7B8F1000F04D071693846043154
:104E0C00FFF707FE4146F3E7B9F1000F01D1494620
:104E1C00EEE77469102201A800F0EDF806238DF876
:104E2C00143001AD04F108031834186859682A4687
:104E3C0003C20833A3421546F7D101A906A807AD52
:104E4C00FFF7C8FD0FCD3C1D0FC42B682370DEE7A8
:104E5C000098FFF79DF9384615B0BDE8F0830000C7
:104E6C00024B034A1A6000225A60704724E7032061
:104E7C00AC520D00232813B502D9002002B010BD8E
:104E8C00A0F10B03022B1AD8174C2178BFF35B8FC0
:104E9C0011F001010BD120460191FFF7FAF80199AD
:104EAC0028B11248FFF776FB2046FFF7F7F80F4BB7
:104EBC001878FFF735FA0028DFD10120DEE701284A
:104ECC0009D800F059F80021007CFFF711FA80F0A6
:104EDC000100C0B2D2E709380128EED8FFF778FEFE
:104EEC00007CFFF7CDF9F2E72CE7032030E7032035
:104EFC00232838B504460D460AD8FF2908D0FFF7F9
:104F0C00B9FF28B129462046BDE83840FFF750B913
:104F1C0038BD38B504460D46FFF752F9FF2810D0BE
:104F2C00062804D84D2323FA00F0C30709D42046E1
:104F3C00FFF7A0FF28B129462046BDE83840FFF70F
:104F4C0047B938BD7047000038B500232025438091
:104F5C00142304460380856005610649284600F049
:104F6C0031F804496060284600F02CF8E0602046D7
:104F7C0038BD00BFE0520D0030B50E4D2978BFF39F
:104F8C005B8F11F0010487B011D12846FFF781F82F
:104F9C0068B101A8FFF7D8FF01AA21460648FFF720
:104FAC0069FE2846FFF77AF8044800F010F802482A
:104FBC0007B030BD3CE7032040E70320514F0D0004
:104FCC00FFF765B8FFF761B808B5FFF795FA00234E
:104FDC0001461A46184600F04BB80A44914200F1BB
:104FEC00FF3300D1704710B511F8014B03F8014F96
:104FFC009142F9D110BD02440346934200D170474F
:10500C0003F8011BF9E7000038B50D4B1D68AB6BBD
:10501C0004467BB91820FFF757FA0A4A0A4BA863D3
:10502C00C0E90023094B83600B23838101220023F9
:10503C00C0E90423AB6B00221C615A6138BD00BF70
:10504C003CE503200E33CDAB34126DE6ECDE0500EF
:10505C00034611F8012B03F8012B002AF9D17047F4
:10506C00034613F8012B002AFBD1181A013870479C
:10507C002DE9F843DFF8B8800646D8F800001F4643
:10508C000D46914600F056F8254B1C6834B9254C5A
:10509C001C60254B13B11B68C4F8883063681F2B48
:1050AC0007DDD8F8000000F047F84FF0FF30BDE8FE
:1050BC00F8834EB3D4F8880088B91C4B23B9D8F8C0
:1050CC00000000F038F8F0E74FF48470FFF7FCF9BB
:1050DC000028F4D00023C0E94033C4F8880063688A
:1050EC0040F8239001229A4000EB8301D0F8003164
:1050FC001343022EC0F80031C1F8807002BFD0F803
:10510C0004311A43C0F804216368D8F800005A1C13
:10511C000233626044F8235000F00EF80020C6E71A
:10512C00E0E7032054E7032000000000D5440D0005
:10513C00A0E5032070477047704700001D400D002C
:10514C0059400D0081400D0085400D00000000000D
:10515C00737461747573004C4544007765206775F2
:10516C0063630000000000000000000083450D0098
:10517C0079450D006F450D0065450D0059450D0035
:10518C004D450D00614D0D00694D0D0041450D0063
:10519C0039450D002F450D0025450D00994D0D008D
:1051AC006170700025592D256D2D25645425483AC4
:1051BC00254D3A2553257A0061736374696D65003A
:1051CC0000000000000000005F490D004F490D0079
:1051DC0051490D000000000000000000394A0D008C
:1051EC00A14A0D00774A0D00F9460D00694A0D00E1
:1051FC003B4A0D004B4A0D009B4A0D005B4A0D00CB
:10520C00334A0D000000000000000000354B0D007B
:10521C00A34B0D007B4B0D00F9460D004B4B0D00C5
:10522C00674B0D00594B0D00754B0D00374B0D00A6
:10523C003D4B0D000000000000000000294C0D004B
:10524C00734C0D004B4C0D002B4C0D00534C0D00B2
:10525C005B4C0D00634C0D006B4C0D00000000000E
:10526C0000000000034D0D00F94C0D00EF4C0D003B
:10527C00A54C0D00E34C0D00D74C0D00614D0D00FD
:10528C00694D0D00CB4C0D00C34C0D00B94C0D00FD
:10529C00AF4C0D00994D0D00000000000000000007
:1052AC00214D0D002B4D0D00354D0D003F4D0D00CA
:1052BC00494D0D00554D0D00614D0D00694D0D0012
:1052CC00714D0D007D4D0D00854D0D008F4D0D0068
:1052DC00994D0D00000000008D450D00B5450D00E9
:1052EC00E9460D0095470D00A5470D00C1470D007F
:1052FC000D4D0D006D4E0D00000000000000000073
:04530C00000000009D
:045310000000000099
:10531400C4510D0040E5032000000000000000001F
:105324000000000000000000000000000000000079
:105334000000000000000000000000000000000069
:105344000000000000000000000000000000000059
:105354000000000000000000000000000000000049
:105364000000000000000000000000000000000039
:0C5374000000000000000000E5E703203E
:10538000FFFFFFFF00000102030405060708090AEA
:105390000B0C0D0E0F101112131415161718191AE5
:0853A0001B1C1D1E1F2028002C
:0453A80078563412ED
:04000003D000401CCD
:00000001FF
